:020000040FFFEC
:1000000000E001207505FF0FD905FF0FDD05FF0F8B
:10001000D505FF0FD505FF0FD505FF0FD505FF0F40
:10002000000000000000000000000000E105FF0FDC
:10003000D505FF0F00000000E505FF0FFD32FF0FA3
:10004000D505FF0FD505FF0FD505FF0FD505FF0F10
:10005000D505FF0FD505FF0FD505FF0FD505FF0F00
:10006000ED05FF0FF105FF0FD505FF0FD505FF0FBC
:10007000F505FF0FF905FF0FFD05FF0FD505FF0F74
:100080000106FF0F0506FF0FD505FF0F0906FF0F3D
:100090000D06FF0FD505FF0FD505FF0FD505FF0F87
:1000A000D505FF0FD505FF0FD505FF0FD505FF0FB0
:1000B000D505FF0FD505FF0FD505FF0FD505FF0FA0
:1000C000D505FF0FD505FF0FD505FF0FD505FF0F90
:1000D000D505FF0FD505FF0FD505FF0FD505FF0F80
:1000E000D505FF0FD505FF0FD505FF0FD505FF0F70
:1000F000D505FF0F1106FF0FD505FF0FD505FF0F23
:10010000D505FF0FD505FF0FD505FF0F1506FF0F0E
:100110001906FF0F1D06FF0F2106FF0F2506FF0F13
:10012000D505FF0FD505FF0FD505FF0FD505FF0F2F
:10013000D505FF0F2906FF0F2D06FF0F3106FF0F14
:10014000D505FF0F3506FF0F3906FF0FD505FF0F49
:100150003D06FF0FC935FF0F4506FF0F4906FF0F8C
:10016000D505FF0FD505FF0FD505FF0FD505FF0FEF
:10017000D505FF0FD505FF0FD505FF0FD505FF0FDF
:10018000D505FF0FD505FF0FD505FF0FD505FF0FCF
:10019000D505FF0FD505FF0F4D06FF0F5106FF0FC9
:1001A000D505FF0FD505FF0FD505FF0FD505FF0FAF
:1001B000D505FF0FD505FF0F5506FF0F5D06FF0F95
:1001C0006906FF0F7506FF0F8106FF0F8D06FF0FF3
:1001D0009906FF0FA506FF0FB106FF0FBD06FF0F23
:1001E000C906FF0FD506FF0FE106FF0FED06FF0F53
:1001F000F906FF0F0507FF0F1107FF0F1D07FF0F80
:100200002907FF0F3507FF0F4107FF0F4D07FF0FAE
:100210005907FF0F6507FF0F7107FF0F7D07FF0FDE
:100220008907FF0F9507FF0FA107FF0FAD07FF0F0E
:10023000B907FF0FC507FF0FD505FF0FD107FF0F48
:10024000D507FF0FD907FF0FDD07FF0FE107FF0FEE
:10025000E507FF0FE907FF0FED07FF0FF107FF0F9E
:10026000F507FF0FF907FF0FFD07FF0F0108FF0F4D
:100270000508FF0F0908FF0F0D08FF0F1108FF0FFA
:100280001508FF0F1908FF0F1D08FF0F2108FF0FAA
:100290002508FF0F2908FF0F2D08FF0F3108FF0F5A
:1002A0003508FF0F3908FF0F3D08FF0F4108FF0F0A
:1002B0004508FF0F4908FF0F4D08FF0F5108FF0FBA
:1002C000D505FF0FD505FF0FD505FF0FD505FF0F8E
:1002D000D505FF0FD505FF0FD505FF0FD505FF0F7E
:1002E000D505FF0FD505FF0F5508FF0F5908FF0F64
:1002F000D505FF0FD505FF0FD505FF0FD505FF0F5E
:10030000D505FF0FD505FF0FD505FF0F5D08FF0FC2
:100310006108FF0F6508FF0F6908FF0FD505FF0F84
:100320006D08FF0FD505FF0FD505FF0FD505FF0F92
:10033000D505FF0FD505FF0FD505FF0F7108FF0F7E
:100340007508FF0F7908FF0F7D08FF0F8108FF0F69
:100350008508FF0F8908FF0F8D08FF0F9108FF0F19
:100360009508FF0F9908FF0F9D08FF0FD505FF0F98
:10037000D505FF0FA108FF0FD505FF0FD505FF0F0E
:10038000D505FF0FD505FF0FA508FF0FA908FF0F23
:10039000D505FF0FD505FF0FD505FF0FD505FF0FBD
:1003A000D505FF0FD505FF0FD505FF0FD505FF0FAD
:1003B000D505FF0FD505FF0FD505FF0FD505FF0F9D
:1003C000D505FF0FD505FF0FD505FF0FD505FF0F8D
:1003D000D505FF0FD505FF0FD505FF0FD505FF0F7D
:1003E000D505FF0FD505FF0FD505FF0FD505FF0F6D
:1003F000D505FF0FD505FF0FD505FF0FD505FF0F5D
:10040000D505FF0FD505FF0FD505FF0FD505FF0F4C
:10041000D505FF0FD505FF0FD505FF0FD505FF0F3C
:10042000D505FF0FD505FF0FD505FF0FD505FF0F2C
:10043000D505FF0FD505FF0FD505FF0FD505FF0F1C
:10044000D505FF0FD505FF0FD505FF0FD505FF0F0C
:10045000D505FF0FD505FF0FD505FF0FD505FF0FFC
:10046000D505FF0FD505FF0FD505FF0FD505FF0FEC
:04047000D505FF0FA0
:100478000348044B834202D0034B03B1184770472B
:10048800603001206030012000000000064B074961
:10049800C91A891048BF0131491003D0044B0BB168
:1004A80001481847704700BF6030012060300120C4
:1004B8000000000010B5064C237843B9FFF7D8FFB9
:1004C800044B13B10448AFF300800123237010BD1F
:1004D8006030012000000000FC5EFF0F08B5044BEF
:1004E8001BB104490448AFF30080BDE80840CDE7DC
:1004F8000000000064300120FC5EFF0FA3F5803A85
:10050800704700BF154B002B08BF114B9D46FFF7E6
:10051800F5FF00218B460F461148124A121A00F0C7
:100528005DFC0C4B002B00D098470B4B002B00D0E8
:1005380098470020002104000D000B4800F060FDE2
:1005480000F01CFC2000290002F036FA00F046FDFD
:1005580000000800000000000000000000E001208A
:100568006030012010350120DD12FF0F72B60E48F1
:100578000E4901600A6882F308880D4880470D49D2
:100588000D4A0E4B9A42BEBF51F8040B42F8040BB9
:10059800F8E700200A490B4A9142BCBF41F8040B16
:1005A800FAE762B60848804708ED00E00000FF0F50
:1005B8000536FF0F245FFF0F003001206030012057
:1005C8001035012000E001200D05FF0FFFF7FEBFE9
:1005D800B4480047B4480047B4480047B448004707
:1005E800B4480047B4480047B4480047B4480047F7
:1005F800B4480047B4480047B4480047B4480047E7
:10060800B4480047B4480047B4480047B4480047D6
:10061800B4480047B4480047B4480047B4480047C6
:10062800B4480047B4480047B4480047B4480047B6
:10063800B4480047B4480047B4480047B4480047A6
:10064800B4480047B4480047B44800474FF000009A
:10065800B34908474FF000004FF00001B04A104777
:100668004FF000004FF00101AD4A10474FF0000075
:100678004FF00201AA4A10474FF000004FF0030163
:10068800A74A10474FF000004FF00401A44A104752
:100698004FF000004FF00501A14A10474FF000004D
:1006A8004FF006019E4A10474FF000004FF0070137
:1006B8009B4A10474FF000004FF00801984A104736
:1006C8004FF000004FF00901954A10474FF0000025
:1006D8004FF00A01924A10474FF000004FF00B010B
:1006E8008F4A10474FF000004FF00C018C4A10471A
:1006F8004FF000004FF00D01894A10474FF00000FD
:100708004FF00E01864A10474FF000004FF00F01DE
:10071800834A10474FF000004FF01001804A1047FD
:100728004FF000004FF011017D4A10474FF00000D4
:100738004FF012017A4A10474FF000004FF01301B2
:10074800774A10474FF000004FF01401744A1047E1
:100758004FF000004FF01501714A10474FF00000AC
:100768004FF016016E4A10474FF000004FF0170186
:100778006B4A10474FF000004FF01801684A1047C5
:100788004FF000004FF01901654A10474FF0000084
:100798004FF01A01624A10474FF000004FF01B015A
:1007A8005F4A10474FF000004FF01C015C4A1047A9
:1007B8004FF000004FF01D01594A10474FF000005C
:1007C8004FF01E01564A1047564800475648004702
:1007D800564800475648004756480047564800477D
:1007E800564800475648004756480047564800476D
:1007F800564800475648004756480047564800475D
:10080800564800475648004756480047564800474C
:10081800564800475648004756480047564800473C
:10082800564800475648004756480047564800472C
:10083800564800475648004756480047564800471C
:10084800564800475648004756480047564800470C
:1008580056480047564800475648004756480047FC
:1008680056480047564800475648004756480047EC
:1008780056480047564800475648004756480047DC
:1008880056480047564800475648004756480047CC
:1008980056480047564800475648004756480047BC
:1008A80056480047D905FF0FDD05FF0FE105FF0F8B
:1008B800E505FF0FFD32FF0FD505FF0FD505FF0F2B
:1008C800D505FF0FD505FF0FD505FF0F854BFF0F8A
:1008D800C54BFF0FD554FF0FF954FF0FD505FF0F78
:1008E800D505FF0FD505FF0FD505FF0FD505FF0F60
:1008F800D505FF0FD505FF0FD505FF0FD505FF0F50
:10090800054CFF0F454CFF0F1D55FF0F4155FF0FBD
:100918006555FF0F8955FF0FD505FF0FD505FF0F4B
:10092800D505FF0FD505FF0FD505FF0FD505FF0F1F
:10093800D505FF0FD505FF0FD505FF0FD505FF0F0F
:10094800D505FF0FD505FF0FD505FF0FD505FF0FFF
:10095800D505FF0FD505FF0FD505FF0FD505FF0FEF
:10096800D505FF0FD505FF0FD505FF0FD505FF0FDF
:10097800D505FF0FD505FF0FD505FF0FD505FF0FCF
:10098800D505FF0FD505FF0FD505FF0FD505FF0FBF
:10099800D505FF0FD505FF0FD505FF0FD505FF0FAF
:1009A800D505FF0FD505FF0FD505FF0FD505FF0F9F
:1009B800D505FF0FD505FF0FD505FF0FD505FF0F8F
:1009C800D505FF0F854CFF0FC54CFF0F054DFF0FD9
:1009D800454DFF0FD505FF0FD505FF0FD505FF0FB7
:1009E800D505FF0FD505FF0FD505FF0FD505FF0F5F
:1009F800D505FF0FD505FF0FAD55FF0FD155FF0FDB
:100A080053B94AB9002908BF00281CBF4FF0FF316D
:100A18004FF0FF3000F08CB9ADF1080C6DE904CE51
:100A280000F006F8DDF804E0DDE9022304B07047C1
:100A38002DE9F04F099D0E4604460F46002B47D17D
:100A48008A429446B2FA82F35AD943B102FA03FCB5
:100A5800C3F120029F409C4020FA02F217434FEA5C
:100A68001C461FFA8CFE220CB7FBF6F106FB117729
:100A780001FB0EF042EA0742904208D91CEB020241
:100A880001F1FF3702D2904200F23C813946121A36
:100A9800A4B2B2FBF6F006FB102200FB0EFE44EAFD
:100AA8000244A64508D91CEB040400F1FF3202D227
:100AB800A64500F22A81104640EA0140A4EB0E0444
:100AC80000211DB1DC400023C5E90043BDE8F08FDB
:100AD8008B4205D90DB1C5E9000100210846F5E7AB
:100AE800B3FA83F100294FD1B342C0F002818242A8
:100AF80040F2FF800846002DE8D0C5E90047E5E749
:100B0800002B40F0AF808A1A4FEA1C4E1FFA8CF770
:100B18000121B2FBFEF60EFB1620220C42EA00422F
:100B280007FB06F090420FD91CEB020206F1FF38D2
:100B38002CBF4FF001094FF00009904203D9B9F1D9
:100B4800000F00F0DC804646121AA4B2B2FBFEF099
:100B58000EFB102200FB07F744EA0244A7420FD914
:100B68001CEB040400F1FF322CBF4FF0010E4FF0D4
:100B7800000EA74203D9BEF1000F00F0C98010464D
:100B8800E41B40EA06409CE7C1F120048B4006FACA
:100B980001FC00FA01FE22FA04F7E6408A401F43EE
:100BA80020FA04F34FEA174843EA0C031FFA87FCBC
:100BB8004FEA1349B6FBF8F008FB106649EA064607
:100BC80000FB0CF9B1450ED9BE1900F1FF3A2CBF54
:100BD8004FF0010B4FF0000BB14503D9BBF1000FEB
:100BE80000F0A2805046A6EB09061FFA83F9B6FB6F
:100BF800F8F308FB136603FB0CFC49EA0646B44508
:100C08000ED9BE1903F1FF382CBF4FF001094FF080
:100C18000009B44503D9B9F1000F00F082804346BA
:100C280043EA0040A6EB0C06A0FB028C664543464F
:100C3800E14602D307D1C64505D2B8EB02036CEBF7
:100C4800070C0138E1465DB1BEEB030266EB09060D
:100C580006FA04F422FA01F3CE401C43C5E9004623
:100C6800002133E702FA03FCC3F1200299409C40BB
:100C7800D6404FEA1C4E20FA02F21FFA8CF7B6FB58
:100C8800FEF00A430EFB1066110C41EA064100FB18
:100C980007F68E420ED91CEB010100F1FF382CBF7C
:100CA8004FF001094FF000098E4202D9B9F1000F47
:100CB80034D04046891B92B2B1FBFEF60EFB1611EA
:100CC80042EA014206FB07F191420ED91CEB0202EF
:100CD80006F1FF382CBF4FF001094FF0000991428F
:100CE80002D9B9F1000F16D04646521A46EA004119
:100CF8000FE7841A66EB030201201746FBE6023E63
:100D0800624421E702396244C1E664440238D3E60A
:100D18006444023834E7023E6244E6E7023861443C
:100D2800C8E7023B3E447BE702383E445BE700BF2E
:100D3800704700BF0A4D14461A4603462E680D46F2
:100D480000B5F06885B044B106490095CDE90114B5
:100D5800054900F02FF900F039F804490C46F4E78A
:100D680000300120805EFF0F905EFF0F8C5EFF0F4A
:100D780008B513460022FFF7DDFF00BF0F4B70B523
:100D88000F4DAB42A3EB050607D0B6100024013483
:100D980055F8043B9847A642F9D80A4D05F0AAF839
:100DA800094B5E1BAB424FEAA60606D0002401346D
:100DB80055F8043B9847A642F9D870BD1C5FFF0F51
:100DC8001C5FFF0F1C5FFF0F205FFF0F062008B599
:100DD80000F0F0FC012001F00AFF00BF70B58607A3
:100DE80047D0541E002A3ED0CAB2034601E0013C57
:100DF80039D303F8012B9D07F9D1032C2CD9CDB297
:100E08000F2C05EB052505EB054535D9A4F1100C8C
:100E180003F1100E1A462CF00F064FEA1C1CB644BC
:100E2800C2E90055C2E9025510327245F8D10CF1F9
:100E3800010214F00C0F04F00F0C03EB021213D094
:100E4800ACF1040323F003030433134442F8045BB6
:100E58009342FBD10CF003042CB1C9B21C4403F833
:100E6800011BA342FBD170BD64461346002CF4D18C
:100E7800F9E703461446C0E71A46A446E0E700BF70
:100E8800014B1868704700BF00300120844641EAD2
:100E9800000313F0030349D1403A23D30B680360DE
:100EA8004B6843608B688360CB68C3600B690361E0
:100EB8004B6943618B698361CB69C3610B6A0362C8
:100EC8004B6A43628B6A8362CB6AC3620B6B0363B0
:100ED8004B6B43638B6B8363CB6BC3634030403195
:100EE800403ADBD230320BD30B6803604B68436067
:100EF8008B688360CB68C36010301031103AF3D22E
:100F08000C3205D351F8043B40F8043B043AF9D2BB
:100F1800043208D0D2071CBF11F8013B00F8013B8E
:100F280001D30B8803806046704700BF082A13D39B
:100F38008B07B1D010F00303AED0C3F10403D21A6B
:100F4800DB071CBF11F8013B00F8013BA4D331F8C3
:100F5800023B20F8023B9FE7043AD9D3013A11F843
:100F6800013B00F8013BF9D20B7803704B784370D2
:100F78008B78837060467047024B0146186800F012
:100F8800B5BE00BF00300120024B0146186800F0D2
:100F98002DBF00BF003001200CB400B583B004ABF6
:100FA80053F8042B019300F06DF803B05DF804EBDF
:100FB80002B070470EB410B583B0074C014605ABBC
:100FC800206853F8042B019300F05CF803B0BDE8E7
:100FD800104003B0704700BF0030012008B5064B31
:100FE800044613B1002101F02FFC044B1B6803B128
:100FF8009847204601F0FBFD5128FF0FB43101202E
:10100800002301461A46184601F048B89368013B88
:10101800002B936005DAD2F818C0634507DB0A296C
:1010280005D01368581C106008461970704700F006
:1010380065B900BF9BB1F8B5134406460F46541E68
:101048005D1E01E0AC4208D03A4614F8011F304654
:10105800FFF7DCFF431CF5D1F8BD0020F8BD0020E8
:10106800704700BF936810B514461BB91846002393
:10107800636010BD00F08EF90023A3600023636055
:1010880010BD00BF2DE9F04F8B469FB016461C4699
:10109800824618B1036A002B00F00381BBF80C30BC
:1010A800180740F19880DBF81030002B00F093808F
:1010B80000237D4F4FF0010805940B9343F2200362
:1010C800ADF83130337835464BB1252B07D02A4659
:1010D80015F8013F0BB1252BF9D1A91B60D1002BC5
:1010E80071D000234FF0FF320135069309938DF834
:1010F8005B301C93CDE9072305E0C01B254608FAA1
:1011080000F0034306932C460522384614F8011BC9
:1011180001F0AAFA069B26460028EED1D90602D588
:1011280020228DF85B201A0702D52B228DF85B2030
:1011380029782A2959D1059A111D1268002A059182
:10114800C0F28980099269782E2962D0574C03220F
:10115800204601F089FA30B1001B4022069B013677
:1011680082401343069316F8011B062250488DF857
:10117800301001F079FA002873D04E4B002B5AD06A
:1011880005AC4D4B5A4606A950460094AFF3008073
:101198008146B9F1FF3F16D00B9B4B440B9391E767
:1011A800013ECDF8089003958946741835461646D1
:1011B80001E0A54246D05A4615F8011F5046FFF7F0
:1011C80025FF0130F5D1BBF80C305B060AD40B982B
:1011D8001FB0BDE8F08F5946504600F0FDFE0028CC
:1011E8003FF466AF4FF0FF30F2E7A1F13002092A71
:1011F80055D8099B00E00134217803EB830302EB07
:101208004303A1F13002092AF5D92E29264609936C
:101218009CD171782A292ED1059BB21C191D1B68F7
:10122800002B07930591B8BF4FF0FF33B1781646EE
:10123800B8BF07938AE7059B073323F007030833F2
:101248000593A9E749460B9BDDF808900B44039DDD
:101258000B93737843E7524243F0020309920693D3
:1012680071E705A8144B5A4606A90090504601F0AC
:101278002BF881468DE7A1F1300200230136092AB7
:1012880007933FF663AF03EB830316F8011F02EBE6
:101298004303A1F13002092AF5D9079356E72E46F0
:1012A80052E700F00DFCF9E6C05EFF0FC85EFF0FC5
:1012B800CC5EFF0F000000003D10FF0F10B4044C7F
:1012C80013460A460146206810BCFFF7DBBE00BF84
:1012D8000030012038B5074D074C2C1BA41005D051
:1012E800013C55F8043D9847002CF9D1BDE8384039
:1012F80004F006BE245FFF0F205FFF0FF8B50D4610
:101308000646144610B1036A002B37D0A269A38998
:10131800A2601A0719D52369BBB12268EDB26169C9
:10132800D31A2F46994220DD0133A1680139A16003
:10133800511C2160157062699A420DD0A389DB07A0
:1013480001D50A2D08D03846F8BD2146304600F0B0
:1013580043FE38B92369E0E72146304600F060FCD7
:101368000028F0D04FF0FF37EDE72146304600F077
:1013780057FC0028F6D122680123D6E700F0A0FB2D
:10138800C4E700BF024B0A4601461868FFF7B6BF1C
:10139800003001209368002B00F0F780B1F90CC0F1
:1013A8001CF0080F2DE9F04F904683B081460C469B
:1013B80031D00B697BB31CF00207D8F8006038D035
:1013C8000027D4F828B0216ADFF8BCA23D4655456D
:1013D8002B463A46484628BF5346C5B1D847002849
:1013E80040F3C980D8F8083007442D1A1B1AC8F8EA
:1013F8000830002B00F0B58055452B46D4F828B0AE
:101408003A46216A28BF53464846002DE6D1D6E918
:1014180000750836DBE72146484600F0DDFD002868
:1014280040F0AE80B4F90CC0D8F800601CF0020798
:10143800C6D11CF0010A64D123685746A168184632
:101448008B46002F59D01CF4007F00F0B280B942BF
:101458000A4600F2DE801CF4906F30D021695D1AD4
:10146800636913EB430348BF01334FEA630B6B1CFB
:101478003B445A465B4501D99B461A461CF4806F8B
:1014880000F0E6801146484600F030FC002800F0E5
:10149800F5802A4621690190FFF7F8FCA289019B93
:1014A80022F4906242F08002A2815819C4F814B064
:1014B800ABEB05053A46BB462361A5602060514663
:1014C800019200F0E7FCA16823683D46019AA1EB70
:1014D8000B0100271A44A1602260D8F80830AA44FA
:1014E8005B1BC8F80830002B3BD02368A168B4F90F
:1014F8000CC018468B46002FA5D1D6E900A70836A0
:101508009DE73846BB463D46002D40D0002845D0D3
:101518003A46A168AA426369206828BF2A4603EBB5
:10152800010A2169884202D9524500F38280934218
:1015380072DC5A46216A4846D4F828C0E047B0F120
:10154800000A18DDB7EB0A070FD00120D8F80830D9
:10155800D344A5EB0A05A3EB0A03C8F80830002B0F
:10156800D2D1002003B0BDE8F08F2146484600F0F4
:1015780057FB0028EAD0B4F90C3043F04003A381AC
:101588004FF0FF3003B0BDE8F08F0020704775685A
:1015980033460836002DFAD0D3F800B02A460A217F
:1015A800584601F061F8002865D00130A0EB0B0720
:1015B800AEE722699A4214D36269BA4211D86FF031
:1015C8000043A56A216A4846BB4228BF3B4693FBB5
:1015D800F2F302FB03F35246A847051ECBDD7F1B3F
:1015E8007BE7B942184628BF39460D4651462A4678
:1015F80000F050FCA1682368491B2B44A1602360BC
:101608000029ECD12146484600F00AFB0028E6D024
:10161800B1E7BB463A4652E75946019200F03AFC18
:10162800019AA36892469B1AA36023681344236017
:1016380088E75946524600F02DFC23682146484663
:101648005344236000F0ECFA00283FF47BAF92E7A4
:10165800484600F079FD034600287FF426AF21694B
:10166800484600F0C3FBB4F90C300C2223F0800389
:10167800C9F8002081E76A1C17464AE70C22B4F92A
:101688000C30C9F8002078E700FCFF7F38B5C46B40
:101698000CB1002038BD0546802100F027FB02462A
:1016A800E86330B1031F7C3243F8044F9342FBD107
:1016B800EFE74FF0FF3038BD1F2930B5054683B03E
:1016C80008D8C36B0C4653B153F8240043F82420C0
:1016D80003B030BD162303604FF0FF30F8E78021D8
:1016E800019200F003FB019A0346E8630028F3D057
:1016F800011F00F17C05002041F8040FA942FBD12D
:10170800E2E700BF1F2938B505461ED8C26B0C4654
:101718006AB152F8213053B1012B06D0591C10D0B0
:101728000021204642F824109847002038BD28465A
:1017380001F076F8224601462846BDE8384001F017
:1017480059B8162301202B6038BD16234FF0FF30FF
:101758002B6038BD1F292AD838B5C36B0C460546FF
:10176800A3B153F8242003EB84034AB1511C0BD0D6
:10177800012A07D0002520461D609047284638BD1D
:10178800012038BD032038BD022038BD802100F07B
:10179800ADFA0346E86338B1021F00217C3042F8F5
:1017A800041F8242FBD1DCE74FF0FF3038BD4FF019
:1017B800FF30704738B51F28124B1D681DD8EA6BDB
:1017C800044662B152F820304BB1012B05D0591CA8
:1017D8000FD0002142F820109847002038BD284635
:1017E80001F01EF8224601462846BDE8384001F0BF
:1017F80001B8162301202B6038BD16234FF0FF30A7
:101808002B6038BD00300120114B1F2870B51E68B1
:1018180008D8F36B04460D464BB153F8240043F83F
:10182800245070BD162333604FF0FF3070BD802107
:10183800304600F05BFA0346F0630028F4D0021F3C
:1018480000217C3042F8041F8242FBD1E5E700BF4B
:101858000030012038B50B4B1D68EC6B0CB1002033
:1018680038BD8021284600F041FAE86338B1031FEB
:1018780000F17C0243F8044F9342FBD1EFE74FF0AD
:10188800FF3038BD0030012038B51F28164B1D68C1
:1018980026D80446E86BA0B150F8242000EB840356
:1018A8004AB1511C0BD0012A07D0002520461D60E3
:1018B8009047284638BD012038BD032038BD022096
:1018C80038BD8021284600F011FAE86340B1031FB3
:1018D80000F17C01002243F8042F8B42FBD1DBE7A7
:1018E8004FF0FF3038BD00BF0030012000207047A6
:1018F800024A0349034800F04DBB00BF50300120A5
:10190800291CFF0F043001200C4B4168994210B587
:10191800044601D000F084F9A168094B994202D02D
:10192800204600F07DF9E168064B994204D0204634
:10193800BDE8104000F074B910BD00BF7C30012034
:10194800E43001204C310120002070472DE9F84394
:101958002A4900252A4C04230822DFF8A890C4F855
:10196800381104F15C002946DFF89C80274F284E87
:10197800E36025606566A561C4E90155C4E90455BD
:10198800FFF72CFA234B0822294604F1C4006367A9
:101998002567C4F8CC50C4F880502663C4E90849C8
:1019A800C4E90A87C4E91A55C4E91E55FFF716FAAF
:1019B80004F1680329460822C4F8883004F59670B3
:1019C800154BC4F8D850C4F8DC30C4F83451C4F806
:1019D800E850C4E92398C4E92576C4E93455C4E934
:1019E8003855FFF7FBF904F1D003C4E93D98C4E981
:1019F8003F76C4F8F030BDE8F88300BFF918FF0F50
:101A08007C3001205127FF0F7927FF0FB927FF0FDF
:101A1800E127FF0F0900010012000200F8B5254B6D
:101A28000646D3F83831002B3DD0234FD7E901348F
:101A3800013B04D51DE05A1C04F1680419D0B4F91F
:101A48000C50013B002DF6D11C4B0822294604F10D
:101A58005C006566E3602560A561C4E90155C4E9D9
:101A68000455FFF7BBF9C4E90D55C4E912552046E2
:101A7800F8BD3D680DB12F46D8E74FF4D671304612
:101A880000F034F9044688B1042305600C30294677
:101A9800254640F8083C4FF4D072A060FFF79EF945
:101AA8003C602F46C2E7FFF751FFBEE70C233860C2
:101AB8003360DCE77C300120503001200100FFFF5B
:101AC800036A03B17047044B044AD3F83831026201
:101AD800002BF7D13AE700BF7C3001201119FF0F26
:101AE800704700BF704700BF024A0020024900F05B
:101AF80051BA00BF50300120F518FF0F024A0020EC
:101B0800024900F047BA00BF503001205119FF0FB9
:101B1800F8B5B1F90C300C4607461E0739D44A68A7
:101B2800002A52DDE56A002D31D000223E68216A84
:101B38003A6013F4805254D101233846A847451C13
:101B4800024662D0B4F90C30E56A216A580705D517
:101B58006368D21A636B0BB1236CD21A0023384620
:101B6800A847421C3FD00023636023692360A389F0
:101B7800DB0400D56065616B3E6041B104F144034C
:101B8800994202D0384600F031F9002363630020FF
:101B9800F8BD0E69002EFAD09B070D680E600CBFC9
:101BA8004B690023AD1B8B600CE02B463246D4F802
:101BB80028C03846216AE047B0F1000CA5EB0C05B7
:101BC800664406DD002DF0DCE1E70A6C002AA9DC9A
:101BD800DDE7B4F90C3043F040034FF0FF30A38148
:101BE800F8BD626DB2E73968B4F90C301D29F2D836
:101BF8000A4ACA40D507EED50022626022692260EF
:101C0800DA04B8D50029B5D0B5E73B68002B99D0E0
:101C18001D2B01D0162BDCD13E60B8E70100402017
:101C28000B69B3B110B5044682B008B1036A5BB161
:101C3800B1F90C3013B9002002B010BD204602B033
:101C4800BDE81040FFF764BF0191FFF739FF019924
:101C5800EEE70020704700BFB8B10E4A38B50369F7
:101C6800044615682BB10DB12B6A53B1B4F90C3089
:101C78000BB9002038BD21462846BDE83840FFF79B
:101C880047BF2846FFF71CFFF0E7034A034904480B
:101C980000F080B90030012050300120291CFF0FCE
:101CA8000430012070B5104E05460C463368B3B1B8
:101CB8002146284600F036FD431C0CD0C41C24F0F5
:101CC8000304A04205D0211A284600F02BFD01305C
:101CD80001D0204670BD4FF0FF34204670BD194634
:101CE80000F020FD3060E3E7B83101202DE9F8432A
:101CF800CD1C064625F0030508350C2D38BF0C25EC
:101D0800002D2EDBA9422CD8DFF8DC8000F01EFC69
:101D1800D8F804207AB1144603E0636822461C46CA
:101D28004BB123685B1BF8D40B2B1ED89442636815
:101D380053D0536007E029463046FFF7B3FF431CF2
:101D480004461DD00560304600F002FC04F10B008B
:101D5800231D20F00700C21A01D01B1AA350BDE8AA
:101D6800F8830C2333600020F9E761199442256059
:101D780014BF5160C8F80410635163684B60E2E710
:101D8800D8F804701FB33C467F68002FFBD1236846
:101D98003946304604EB030900F0C4FC814516D1EE
:101DA80023683046ED1A2946FFF77CFF01300ED034
:101DB8002368D8F804202B442360536883B1A342D6
:101DC80003D01A465B689C42FBD10023B1E70C2381
:101DD8003046336000F0BCFBC5E7C8F80430B2E712
:101DE800C8F80470AFE700BFB831012000293AD025
:101DF80038B551F8043C0C1F0546002BB8BFE41851
:101E080000F0A4FB224A1368D3B1A34214D81A469F
:101E18005B680BB1A342FAD911685018A04223D0CD
:101E28002ED821686018834211D063605460284618
:101E3800BDE8384000F08CBB2168601883420DD0A3
:101E4800284663601460BDE8384000F081BB18681C
:101E58005B680844C4E900035460E8E718685B68F5
:101E680008442060ECE7704720680144501811606E
:101E78008342DCD1D3E900040144C2E90014D6E767
:101E88000C2328462B60BDE8384000F061BB00BF3A
:101E9800BC31012088420ED98B1883420BD900EB44
:101EA800020C002A6ED0624613F801CD994202F85E
:101EB80001CDF9D170470F2A0FD8034602F1FF3C34
:101EC800002A5FD00CF1010C013B8C4411F8012B66
:101ED800614503F8012FF9D1704740EA01039B07D8
:101EE80051D1A2F1100301F1200C70B523F00F05B8
:101EF80001F1100E00F110041B09AC445EF8105CEF
:101F08000EF1100E103444F8205C5EF81C5C44F8A6
:101F18001C5C5EF8185C44F8185C5EF8145CE645D6
:101F280044F8145CEAD1013312F00C0F02F00F0CE4
:101F380001EB031100EB031329D0ACF1040C1C1FB7
:101F48008E462CF003064FEA9C0C1E445EF8045B98
:101F580044F8045FB442F9D10CF1010402F0030221
:101F680003EB840301EB840102F1FF3C4AB10CF15D
:101F7800010C013B8C4411F8012B614503F8012F3A
:101F8800F9D170BD704702F1FF3C03469AE76246FB
:101F9800EAE700BF2DE9F8434FF0000907468846F5
:101FA8001646D6E90154013D0FD4A389012B08D95F
:101FB800B4F90E3021463846013302D0C04749EA09
:101FC8000009013D68346B1CEFD13668002EE8D15A
:101FD8004846BDE8F88300BF38B52F4B05460C4688
:101FE8001B6813B11A6A002A45D0B4F90C301807D7
:101FF80016D52269F2B113F0010107D061690020FA
:102008004942A060A1613AB1002038BD980758BF85
:102018006169A160002AF7D1190638D4104638BD85
:10202800D9062CD55A0712D4226943F00803A38194
:10203800002AE0D103F42071B1F5007FDBD02146FE
:10204800284600F087FAB4F90C302269D3E7616BAF
:1020580051B104F14402914204D02846FFF7C6FE6C
:10206800B4F90C30002262630021226923F02403B2
:10207800C4E90021D9E71846FFF722FDB5E7092290
:1020880043F040032A60A3814FF0FF3038BD43F08E
:102098004003A381F8E700BF00300120F0B5264CCB
:1020A80083B006460F46256805B36C681F2C3FDCD5
:1020B800A6B1D5F8880048B3D0F800114FF0010C4C
:1020C80040F82420022E00EB84020CFA04FC4CEAAF
:1020D8000101C0F80011C2F8803010D0631C002044
:1020E80002346B6045F8247003B0F0BD13491448FE
:1020F800216010B10068C1F88800104DD5E7D0F80C
:10210800043143EA0C03C0F80431E7E70D49CDE98F
:10211800002369B14FF48470FEF72EFF40B100210F
:102128006C68C0E94011DDE90023C5F88800C5E7FF
:102138004FF0FF30D8E700BF4C320120C0310120FA
:1021480000000000810FFF0F2DE9F041144641B354
:102158000AB306460D4600F043FB8442074602D800
:10216800B4EB500F13D821463046FFF7BFFD804629
:1021780050B1BC422246294628BF3A46FEF786FEA1
:1021880029463046FFF732FE4046BDE8F081A846B2
:102198004046BDE8F081A046FFF728FE4046BDE86E
:1021A800F0811146BDE8F041FFF7A0BD2DE9F84FD9
:1021B80092461F460A690C468B680646DDF8289049
:1021C8009A42B8BF1A46CAF8002091F8433013B1B2
:1021D8000132CAF80020226891065DD5DAF800308D
:1021E8000233CAF80030226812F0060F11461BD1DC
:1021F800E168994266DD4FF0000804F1190B05E02B
:10220800E568DAF80030ED1A45450CDD01235A4639
:1022180039463046C847013008F10108F0D14FF07F
:10222800FF30BDE8F88F216894F84330003B18BFB1
:1022380001238A060AD5E1185A1C302002332244A9
:1022480081F8430094F8451082F8431004F14302E2
:1022580039463046C8470130E1D02368DAF80050E3
:1022680003F006032169042BD4E902201BD08A421B
:1022780020DD4FF00008521A90441A34002501E07E
:10228800454517DA0123224639463046C84701300A
:1022980005F10105F4D1C2E712F0060F0DD0003B9D
:1022A80018BF0123D2E7401B8A4220EAE078E2DC2B
:1022B8000028E2DC0020BDE8F88FDAF80030E16899
:1022C800994298DC1146AFE72DE9F047174684B0EC
:1022D8000A7E0C46064698460C9D01F1430C002ADE
:1022E80035D0A2F15803D9B2202969D8202B67D854
:1022F800DFE813F0E6006600660066006600660028
:1023080066006600660066006600AC007000660045
:10231800660066006600700066006600660066007B
:1023280021008300C60066006600B60066008300D0
:1023380066006600EC002B682268181D6169286039
:1023480010061B6802D4520600F1E08019600023D1
:10235800E14623613B4603AA21463046CDF800807A
:10236800FFF724FF013020D04A462369394630461A
:10237800C047013019D02368E0689B07DDF80C904E
:1023880018D5484516DD002504F1190A04E0E0686F
:10239800A0EB0903AB420DDD012352463946304616
:1023A800C047013005F10105F1D14FF0FF3004B00D
:1023B800BDE8F0874845B8BF484604B0BDE8F08797
:1023C800012004F1420984F842200023206184F8A6
:1023D8004330BFE72A682368111D1806296002D414
:1023E800590600F195801068014600286268C0F21D
:1023F800938054484FF00A0E15E020682B6810F0BF
:10240800800F53F8041B02D1400648BF89B26F2AD7
:102418004C482B6014BF4FF00A0E4FF0080E0023F3
:10242800626884F84330002AA26051DB236823F0F5
:102438000403236000294BD1002A7BD1E146BEF179
:10244800080F56D0ACEB0903236183E72A6804F12F
:1024580042090120111D1268296084F84220B4E75E
:102468002B6800216268181D2860D3F80090484640
:1024780000F0FAF8002863D0A0EB09006060A4E738
:10248800236843F02003236078222F4884F84520EE
:102498002A6813F0800F52F8041B03D113F0400F81
:1024A80018BF89B22A60DA0702D543F020032360F7
:1024B80019B9236823F0200323604FF0100EAEE70C
:1024C8005823204884F845302368E1E72368DBE790
:1024D8007546E1460A46B1FBF5F305FB131AAA4215
:1024E800194610F80A3009F8013DF3D2BEF1080F79
:1024F800A8D12368DD07A5D5626823699A42A1DCC3
:10250800302309F1FF3989F800309BE719801EE76D
:10251800B2F90010084668E72D20002AA26084F866
:10252800430002DB23F0040323600A2549420548DF
:10253800AE46CEE7037804F1420984F842307EE7DC
:10254800606842E7D45EFF0FE85EFF0F704700BF88
:10255800704700BFB1F90C3070B50C46990796B0BA
:1025680007D504F1470301222360C4E9043216B0F9
:1025780070BDB4F90E10054600292ADB6A4600F042
:10258800D9F9002823DB4FF480612846019EFFF724
:10259800ADFB002831D0A38906F470464FF4806261
:1025A800206043F08003B6F5005F2061A38162617B
:1025B800DDD1B4F90E10284600F0A2F80028D6D0D4
:1025C800A38923F0030343F00103A381CFE7B4F900
:1025D8000C3013F0800F284614BF40254FF4806557
:1025E8002946FFF783FB40B1A389206043F08003AD
:1025F800C4E90405A38116B070BDB4F90C309A057E
:10260800B5D423F0030304F14702012143F0020388
:102618002260C4E90421A381A9E700BF70B50C4674
:10262800B1F90E1096B0154600291E460FDB6A4612
:1026380000F080F900280ADB019B4FF4806203F464
:102648007043A3F50053B3FA83F35B0907E0A2894B
:10265800002312F0800F14BF40224FF48062002044
:1026680033602A6016B070BD5FFA81FC810744D0E0
:102678000346511E22B909E09A0709D0013905D34A
:102688001846013302786245F6D17047002070473A
:10269800184603290CD80029F8D00346014401E064
:1026A8008B42F3D0184613F8012B6245F8D17047D6
:1026B80010B50CEB0C24024604EB044402E0043988
:1026C800032915D9104652F8043B6340A3F1013E93
:1026D8002EEA030313F0803FF1D00346014401E0E2
:1026E8008B4208D0184613F8012B6245F8D110BD6B
:1026F80010460029F1D1002010BD1146C9E700BFDE
:1027080038B50022064D044608462A6000F00BFA48
:10271800431C00D038BD2B68002BFBD0236038BD8C
:102728005032012038B50022064D044608462A607A
:1027380000F01CFA431C00D038BD2B68002BFBD0DE
:10274800236038BD5032012010B50C46B1F90E1087
:1027580000F0DAF8002803DB636D0344636510BDFD
:10276800A38923F48053A38110BD00BF00207047C4
:102778002DE9F0410C46B1F90C101F460546CB0572
:1027880016460BD421F480513B4632462846A18197
:10279800B4F90E10BDE8F04100F0F8B8B4F90E1025
:1027A8000223002200F0DCF8B4F90C10EAE700BFBD
:1027B80010B50C46B1F90E1000F0D2F8421CB4F96D
:1027C8000C3004D043F480536065A38110BD23F41A
:1027D8008053A38110BD00BFB1F90E1000F022B8DC
:1027E80051F8043C002BA3F1040000DB70470B58A0
:1027F8001844704770B50C460346084D002620461D
:1028080011461C462E6000F0E2F9431C00D070BD52
:102818002B68002BFBD0236070BD00BF5032012015
:1028280000F0CEB938B50022064D044608462A60A5
:1028380000F05CF9431C00D038BD2B68002BFBD09E
:10284800236038BD503201202DE9F04FDFF8B490F5
:1028580083B0D9F8006096B3884601907568D6F8B9
:1028680088706C1E2BD4013507F1800B06EB8505AB
:10287800B8F1000F26D173682A68013BA3423BD008
:1028880000232B60BAB1D6F804A05FB30123D7F8B0
:102898000011A3400B4225D0D7F8040157F82410A3
:1028A80003422BD1019890477368D9F8002053450B
:1028B8001ED1B2421CD1013C043D631CD8D103B0E7
:1028C800BDE8F08F4FB15BF824304345D3D0013CCD
:1028D800043D621CF3D0002FF5D1013CEFD3013C3D
:1028E800FBD2ECE790477368D9F800205345E0D055
:1028F800002AE4D01646B1E77460C3E7084690475B
:10290800D2E700BF4C32012038B50C468446114648
:10291800074D1A460023204664462B6000F019F93B
:10292800431C00D038BD2B68002BFBD0236038BD7A
:102938005032012070B50C460346084D002620464B
:1029480011461C462E6000F0DCF8431C00D070BD18
:102958002B68002BFBD0236070BD00BF50320120D4
:1029680038B50C4684461146074D1A4600232046C2
:1029780064462B6000F0E1F8431C00D038BD2B689A
:10298800002BFBD0236038BD5032012038B50C46EF
:1029980084461146074D1A460023204664462B609C
:1029A80000F002F9431C00D038BD2B68002BFBD087
:1029B800236038BD5032012080B500AF00F007F821
:1029C80000F01AF900F0BCFA00F026F9FCE780B52F
:1029D80000AF00F041F800F083F800F07BF800F059
:1029E800CFFA00BF80BD80B485B000AFF860B96091
:1029F8007A603B60FB68002B0BD0BB6803F00702D2
:102A0800FB691B0103F01003F96821F0805113439F
:102A18000B607B68002B05D07B6823F080531A4637
:102A28003B68136000BF1437BD4680BC704780B454
:102A380085B000AFF860B9607A603B60BB69002B75
:102A480005D0BB6923F080531A46FB69136000BFA9
:102A58001437BD4680BC704780B500AF00F002F85F
:102A680000BF80BD80B582B002AF00230193154B33
:102A780000930023002200211348FFF7B4FF00232E
:102A88000193124B00930023002200211048FFF706
:102A9800AAFF4FF4806301930A4B0093002300229E
:102AA80000210948FFF7C3FF1E230193074B00933A
:102AB8000023002200210648FFF7B9FF00BFBD46EA
:102AC80080BD00BF38033C5488013C543C033C544F
:102AD8008C013C5480B400AF00BFBD4680BC704739
:102AE80080B500AF00F096FD00BF80BD80B483B014
:102AF80000AF78604FF0FF3318460C37BD4680BCF6
:102B0800704780B483B000AF786039603B68002BB1
:102B180003D03B684FF400525A60002318460C3724
:102B2800BD4680BC704780B483B000AF7860012395
:102B380018460C37BD4680BC704780B485B000AFDE
:102B4800F860B9607A60002318461437BD4680BC27
:102B5800704780B485B000AFF860B9607A60002330
:102B680018461437BD4680BC7047000080B485B055
:102B780000AF78600A4B1B68002B02D1084B094A4A
:102B88001A60074B1B68FB60054B1A687B68134487
:102B9800034A1360FB6818461437BD4680BC70476B
:102BA800543201201035012080B485B000AFF860A0
:102BB800B9607A607B6818461437BD4680BC704798
:102BC80080B400AF01231846BD4680BC704780B56D
:102BD80082B000AF78603960FEF752F903461622DA
:102BE8001A604FF0FF3318460837BD4680BD80B4E1
:102BF80083B000AF7860FEE780B500AF054B0022D8
:102C08001A60044B00225A6000F03CF800F082F889
:102C180000BF80BD5832012080B582B000AF00F0FF
:102C280049FB78600C4B1B687A68D31A632B04D96C
:102C3800094A7B68136000F047F8074B5B687A68BD
:102C4800D31A132B04D9044A7B68536000F07CF82C
:102C580000BF0837BD4680BD5832012080B500AF9F
:102C6800012000F027FA002000F036FA022000F0D8
:102C78002BFB012000F030FA0A2000F025FB00BFF2
:102C880080BD000080B582B000AF0E4B00221A70E4
:102C98000C4B00225A60FFF7E1FF0023BB800023A2
:102CA8003B8039463B1D0222184600F069FA03466C
:102CB800002B02D0034B01221A7000BF0837BD4613
:102CC80080BD00BF6032012080B582B000AF00F047
:102CD80015FA0346FB71FB79002B04D0044B5B68A3
:102CE8000133034A536000BF0837BD4680BD00BFAB
:102CF8006032012080B500AF002000F00BFA0A20F6
:102D080000F0E2FA012000F005FAC82000F0DCFA31
:102D180000BF80BD80B500AF094B00221A70084B78
:102D280000225A60064B00229A60FFF7E3FF022157
:102D3800044800F0E9FB024B01221A7000BF80BD75
:102D480068320120C85BFF0F80B592B000AF3B1D11
:102D580000224021184600F0F5FB78647B6C002BBC
:102D680013D00C4B5A687B6C13440A4A536000F02A
:102D7800A1FA0246074B9B68D31AB3F57A7F04D3AE
:102D880000F098FA0346034A936000BF4837BD46EF
:102D980080BD00BF6832012080B485B000AF786084
:102DA80039600123FB720123BB720023FB6012E030
:102DB8007A68FB6813441B78002B01D00023FB7250
:102DC8007A68FB6813441B78FF2B01D00023BB7281
:102DD800FB680133FB60FA683B689A42E8D3FB7AE8
:102DE800002B02D1BB7A002B01D0012300E0002385
:102DF80003F00103DBB218461437BD4680BC7047A8
:102E080080B582B000AF0023BB8000233B80204BFD
:102E180001221A701E4B00225A701D4B00225A6064
:102E2800012000F047F9002000F056F9022000F0D8
:102E38004BFA012000F050F90A2000F045FA394613
:102E48003B1D0222184600F09BF90346FB71FB79F3
:102E580083F00103DBB2002B04D00D4B01225A6032
:102E6800002310E03B4602211846FFF795FF034672
:102E7800002B04D0064B02225A60002303E0044BC7
:102E880001225A70012318460837BD4680BD00BF8D
:102E98007432012080B594B000AF46F2B523A7F88C
:102EA80040300023FB64254B01221A72234B002279
:102EB8005A72224B0022DA60204B00221A6100204D
:102EC80000F028F90A2000F0FFF9012000F022F9AB
:102ED800C82000F0F9F907F140030221184600F074
:102EE80013FB00F0E7F9B86415E03B460A224021DD
:102EF800184600F027FB7864FA6C7B6C1344FB647B
:102F0800FB6C002B07D00D4AFB6C13610B4B0122A5
:102F18005A7201230EE000F0CDF90246BB6CD31AB9
:102F2800B3F57A7FE1D3054AFB6C1361034B0322A7
:102F3800DA60002318465037BD4680BD7432012040
:102F480080B500AF0D4B00221A700C4B00225A704E
:102F58000A4B00225A60094B00221A72074B0022C2
:102F68005A72064B0022DA60044B00221A61FFF7FE
:102F780047FFFFF78FFF00BF80BD00BF74320120FD
:102F880080B500AF00F08FF800F034F800F07CF95D
:102F980000F0D2F800F08CFA00BF80BD80B485B094
:102FA80000AFF860B9601346FB71FB79002B05D1BF
:102FB8000122BB689A40FB689A6404E00122BB685E
:102FC8009A40FB685A6400BF1437BD4680BC7047FE
:102FD80080B483B000AF786039607B681A6D3B6855
:102FE80022FA03F303F0010318460C37BD4680BCF0
:102FF8007047000080B582B000AF144B1B88BB80BF
:1030080000233B7000237B703B1D1A4603211048A8
:1030180000F032FB3B1D1A4604210D4800F02CFB42
:103028003B461A4605210A4800F026FB3B1D1A4676
:103038000621074800F020FB3B461A4607210448B2
:1030480000F01AFB00BF0837BD4680BDF455FF0FDE
:103058000000404780B584B000AFF860B9601346FF
:10306800FB71FB79002B01D0012300E000231A46F5
:10307800B968F868FFF792FF00BF1037BD4680BDFA
:1030880080B582B000AF7860396039687868FFF73A
:103098009FFF0346002B14BF01230023DBB2184611
:1030A8000837BD4680BD80B400AF00BFBD4680BCB8
:1030B8007047000080B582B000AF0346FB71FB7912
:1030C8001A4603210348FFF7C5FF00BF0837BD466E
:1030D80080BD00BF0000404780B582B000AF034606
:1030E800FB71FB791A4604210348FFF7B3FF00BFC1
:1030F8000837BD4680BD00BF0000404780B500AF1F
:1031080005210348FFF7BCFF0346184680BD00BFF2
:103118000000404780B582B000AF0346FB71FB79E1
:103128001A4606210348FFF795FF00BF0837BD463A
:1031380080BD00BF0000404780B588B000AF3B4667
:10314800184600F019FD0B4B3B6000233B7600232B
:103158003B7201237B7208237B600023BB723B46D2
:10316800054A1946054800F04BFC00BF2037BD460C
:1031780080BD00BF40420F0000366E01000037449A
:1031880080B58AB000AFF860B9607A60FB68002B40
:1031980002D07B68002B01D1002322E007F1140341
:1031A800102200211846FDF719FEFB687B61BB68F9
:1031B800BB617B68FB614FF480133B620020FFF723
:1031C80079FF07F114031946084801F083F978627A
:1031D8000120FFF76FFF7B6A002B0CBF0123002340
:1031E800DBB218462837BD4680BD00BF0000374413
:1031F80080B483B000AF03463960FB80B7F906306E
:10320800002B0ADB3B68DAB20C49B7F906305201E9
:10321800D2B20B4483F800230AE03B68DAB20849CB
:10322800FB8803F00F03043B5201D2B20B441A7619
:1032380000BF0C37BD4680BC704700BF00E100E00E
:1032480000ED00E080B582B000AF78607B68013B9C
:10325800B3F1807F01D301230FE00A4A7B68013B69
:10326800536007214FF0FF30FFF7C2FF054B0022E4
:103278009A60044B07221A60002318460837BD4697
:1032880080BD00BF10E000E080B500AF064B002213
:103298001A60064B1B68064AA2FB03239B091846C3
:1032A800FFF7D0FF00BF80BD883201205C300120CD
:1032B800D34D621080B400AF024B1B681846BD4660
:1032C80080BC70478832012080B584B000AF786038
:1032D800FFF7F0FFF86000BFFFF7ECFF0246FB685E
:1032E800D31A7A689A42F7D800BF00BF1037BD4694
:1032F80080BD000080B400AF044B1B680133034A53
:10330800136000BFBD4680BC704700BF88320120F3
:1033180080B483B000AF0346FB80B7F90630002BBA
:103328000BDBFB8803F01F020649B7F906305B097F
:10333800012000FA02F241F8232000BF0C37BD46F5
:1033480080BC704700E100E080B584B000AF034660
:10335800FB800023FB60B7F9063013F1800F02D120
:103368000123FB6004E0B7F906301846FFF7D0FFE9
:10337800FB6818461037BD4680BD80B487B000AFE3
:1033880078607B689B693B613B6903F40063002BB1
:103398000ED13B6903F40063002B0BD13B6903F0AA
:1033A8001003002B06D13B6903F00203002B01D068
:1033B800012300E00023FB73FB7B03F00103FB7395
:1033C800FB7B002B06D07B68DB69DBB203F07F0355
:1033D800FB7502E07B68DB69FB75FB7D18461C37D3
:1033E800BD4680BC704780B483B000AF0346FB8005
:1033F800FB8801339BB2C3F308039BB218460C3712
:10340800BD4680BC704780B584B000AF78600B467D
:10341800FB707B68B3F800329BB21846FFF7E3FFF6
:103428000346FB817B68B3F802329BB2FA899A4261
:1034380001D100230CE07B68B3F800329BB2194637
:103448007B68FA785A547B68FA89A3F8002201232A
:1034580018461037BD4680BD80B582B000AF786091
:1034680039607B68B3F800329AB27B68B3F80232ED
:103478009BB29A4201D1002315E07B68B3F802326F
:103488009BB21A467B689A5C3B681A707B68B3F8F3
:1034980002329BB21846FFF7A6FF03461A467B681E
:1034A800A3F80222012318460837BD4680BD000054
:1034B80080B586B000AF4FF4017200210F48FDF7C8
:1034C8008DFC3B46184601F0FDFE4FF416533B6059
:1034D8000123FB7401233B753B46094A19460948F9
:1034E80001F0FCFC4FF40011064801F043FF4520B1
:1034F800FFF72AFF00BF1837BD4680BD8C32012078
:1035080000366E010000584280B582B000AF786086
:1035180039607B68002B02D03B68002B01D1002367
:103528000AE03A687968064801F094FF0346002BE0
:1035380001D0002300E03B6818460837BD4680BD2F
:103548000000584280B588B000AFF860B9607A6072
:103558000023FB61FFF7AEFEB861FB68002B02D0C9
:10356800BB68002B1DD1002324E007F1170319467F
:103578001248FFF771FF0346002B07D0FB695A1C5E
:10358800FA61FA681344FA7D1A700AE07B68002B26
:103598000CD0FFF78FFE0246BB69D31A7A689A42AD
:1035A80006D9FA69BB689A42DFD302E000BF00E09F
:1035B80000BFFB6918462037BD4680BD8C3201200C
:1035C80080B582B000AF0B4801F028FF78607B68B7
:1035D80003F40013002B09D00648FFF7CEFE03467C
:1035E800FB70FB7819460448FFF70DFF00BF08374A
:1035F800BD4680BD000058428C32012080B500AF26
:1036080000F002F800BF80BD80B400AF00BFBD4627
:1036180080BC704780B400AF00BFBD4680BC704717
:1036280080B485B000AFF860B9601346FB71FB79D0
:10363800002B05D10122BB689A40FB689A6404E01C
:103648000122BB689A40FB685A6400BF1437BD4624
:1036580080BC704780B584B000AFF860B96013468D
:10366800FB71FB791A46B968F868FFF7D9FF00BF04
:103678001037BD4680BD000080B584B000AFF8604B
:10368800B9607A607B68002B05D1144B144A62211B
:103698001448FDF74FFB7B681B78002B0AD1FB68A9
:1036A8005A6D0121BB6801FA03F3DB431A40FB683A
:1036B8005A650FE07B685B781A46B968F868FFF7C7
:1036C800C9FFFB685A6D0121BB6801FA03F31A436D
:1036D800FB685A6500BF1037BD4680BD6056FF0FB6
:1036E800CC5BFF0F1C56FF0F80B582B000AF0346BE
:1036F8000A46FB711346BB71FB797E2B06D9174B23
:10370800174A40F2E9411748FDF714FB164AFB79BE
:103718009B01134403F5004330331A681249FB79BF
:1037280042F004029B010B4403F5004330331A6056
:10373800BA790D49FB7902F007029B010B4403F5A6
:1037480000431C331A60BFF34F8F00BFBFF36F8F66
:1037580000BF00BF0837BD4680BD00BF7056FF0FD1
:103768003C5CFF0F7C56FF0F0000454480B582B0DB
:1037780000AF0346FB71FB7904211846FFF7B4FF3D
:1037880000BF0837BD4680BD80B483B000AF786005
:103798000B46FB70FB78002B06D07B681B6943F057
:1037A80001027B681A6105E07B681B6923F001024E
:1037B8007B681A6100BF0C37BD4680BC704780B477
:1037C80083B000AF78607B685B6918460C37BD46EC
:1037D80080BC704780B483B000AF78607B685B685A
:1037E8001B0ADBB2012202FA03F3DBB218460C37DC
:1037F800BD4680BC704780B483B000AF78607B68FA
:10380800DB6D03F00F0318460C37BD4680BC7047CC
:1038180080B483B000AF78607B68DB6D1B0C03F06D
:103828000F0318460C37BD4680BC704780B483B080
:1038380000AF786039607B683A685A6100BF0C371E
:10384800BD4680BC704780B487B000AF7860002365
:103858007B617B681B6EFB607B69013303F00103AE
:103868007B617B685B697B681A6E7B699B00183398
:103878003B4443F80C2CFA683B699A42ECD1FB684C
:1038880018461C37BD4680BC704780B483B000AF73
:1038980078600B46FB707B685B6A23F00102FB785B
:1038A80003F001031A437B685A6200BF0C37BD4618
:1038B80080BC704780B483B000AF78607B685B6A77
:1038C80003F00103002B14BF01230023DBB21846C9
:1038D8000C37BD4680BC704780B483B000AF7860B9
:1038E8000B46FB701346BB707B681A69FB78002B8C
:1038F80002D04FF4807100E00021BB78002B02D089
:103908004FF4007300E000230B431A437B681A61ED
:1039180000BF0C37BD4680BC704780B485B000AF8F
:10392800F860B9607A60BB6803F007027B681B0423
:1039380003F4E0231A43FB689A6500BF1437BD46B9
:1039480080BC704780B483B000AF786039607B6812
:103958003A685A6600BF0C37BD4680BC704780B4D1
:1039680083B000AF78607B685B6F18460C37BD4644
:1039780080BC704780B584B000AF78600023FB73CB
:103988000023FB7309E0FB7B0E4A52F823307A6868
:103998009A4206D0FB7B0133FB73FB7B082BF2D9E1
:1039A80000E000BFFB7B082B06D9074B074A4FF402
:1039B80081710748FDF7BEF9FB7B18461037BD46F5
:1039C80080BD00BFE45BFF0FD856FF0F145CFF0FEC
:1039D800FC56FF0F80B584B000AF78600B46FB70D3
:1039E8007868FFF7C7FFF860044AFB681344FA7861
:1039F8001A7000BF1037BD4680BD00BFBC3401201F
:103A080080B586B000AFF860B9607A60BB68002BFB
:103A180006D1554B554A4FF490715548FDF78AF930
:103A280000233B61F868FFF7A5FF7861514A7B697D
:103A380013441B781846FFF799FEFB681B6943F48B
:103A48004072FB681A61FB6800229A61FB680022D9
:103A58001A610021F868FFF797FE0121F868FFF75F
:103A680014FFBB68197EBB685B7E1A46F86800F0D5
:103A7800D7F8FB685B6A23F0E06323F00A03BA68AF
:103A8800D27E920602F080621A43BB689B7E1B06B8
:103A980003F040731343BA68127F002A01D0022250
:103AA80000E000221A43FB685A62BB689B7E012B28
:103AB80003D0BB689B7E022B05D1FB685B6A43F091
:103AC8008062FB685A62BB68196807F110037A685C
:103AD800F86800F0C7F800220021F868FFF71DFF1A
:103AE800BB681B7ADA07BB685B7A9B0703F08043E5
:103AF8001A43BB689B7ADB0503F400031A43BB68CF
:103B08005B68013BC3F30B031A433B69DB0603F015
:103B180060531A43BB681B7E1B0603F040731A43AD
:103B2800FB681A660121F868FFF72EFEBB68D968A2
:103B38007B680122F86800F07FF9BB6819697B6827
:103B48000222F86800F078F9BB6859697B6803229B
:103B5800F86800F071F90021F868FFF73BFF00BF33
:103B68001837BD4680BD00BF4057FF0F285CFF0FC8
:103B7800FC56FF0F085CFF0F80B582B000AF78607D
:103B88007B68002B06D1214B214A4FF4B97121489B
:103B9800FDF7D0F8202200217868FDF71FF97B682F
:103BA8001D4A1A607B6808225A607B6800221A72D4
:103BB8007B6800225A727B6800229A727B681B68B5
:103BC800164AB2FBF3F27B68DA607B681B68134A1B
:103BD800B2FBF3F27B681A617B681B680F4AB2FB81
:103BE800F3F27B685A617B6800221A767B680022B0
:103BF8005A767B6800229A767B680022DA767B68A0
:103C080000221A7700BF0837BD4680BD4057FF0F16
:103C1800505CFF0FFC56FF0F20A107000065CD1D6B
:103C280080B485B000AF78600B46FB701346BB705C
:103C38000023FB607B685A6AFB780833012101FA8C
:103C480003F3DB431340FB60BA78FB7808339A40F0
:103C5800FB681A437B685A6200BF1437BD4680BCB4
:103C68007047000080B58EB000AFF860B9607A6028
:103C78003B603B68002B06D13A4B3B4A40F22E2171
:103C88003A48FDF757F8F868FFF714FE034683F043
:103C98000103DBB2002B05D1FB681B6903F00103AC
:103CA800002B01D0002359E0BB68FB614FF0FF33C4
:103CB8003B6207233B63FF23BB6200237B62002335
:103CC8007B6334E03B6A002B35D00023FB6226E09F
:103CD8003B6A002B27D0264A7B6B13441B781A4675
:103CE800FB6A023302FB03F37A68B2FBF3F3BB61AE
:103CF800FA69BB699A420FD3FA69BB69D31A7B6127
:103D08003A6A7B699A4207D97B693B627B6B3B6362
:103D1800FB6ABB62BB697B62FB6A0133FB62FB6ABD
:103D2800FF2BD5D900E000BF7B6B01337B637B6B36
:103D3800072BC7D900E000BFFB681A6CFB685B6CF7
:103D48001B0E1B0203F47F431A43BB6ADBB21A4300
:103D5800FB681A643B683A6B1A607B6A1846383706
:103D6800BD4680BD6C57FF0F705CFF0FFC56FF0F00
:103D7800DC5BFF0F80B586B000AFF860B960134612
:103D8800FB71FB685B6C1B0EDBB27B61FB685B6CD9
:103D98001B0ADBB23B61FB685B6CDBB23A6913441C
:103DA8003B61FB79032B2AD0032B34DC012B02D097
:103DB800022B13D02FE0FB681B6C23F47F02BB6837
:103DC8001B0403F47F031A437B691B029BB21A434B
:103DD8003B69DBB21A43FB681A6423E0FB681B6C7F
:103DE80023F07F42BB681B061A437B691B029BB208
:103DF8001A433B69DBB21A43FB681A6412E0FB689A
:103E08001A6CBB681B029BB21A433B69DBB21A43AC
:103E1800FB681A6406E0054B054A40F2C1210548D3
:103E2800FCF788FF00BF1837BD4680BD8857FF0FD5
:103E3800885CFF0FFC56FF0F2DE9B04FA8B000AF0C
:103E480078663966BB65134687F85F300023FB67E1
:103E5800786EFFF7F8FC0346DB0E03F007029C4B75
:103E68009B5C1A46BB6DB3FBF2F3BB674FF0FF33A5
:103E7800C7F88C30FF23C7F8903097F85F30032BD2
:103E880043D191A3D3E90023C7E92023D7E920230D
:103E9800941843EB0305C7E92045BB6F00223B6537
:103EA8007A65D7E91423D7E92001FCF7A9FD024672
:103EB8000B46C7E9202384A3D3E90023C7E92623B7
:103EC800D7E9264522462B464FF000004FF0000167
:103ED800190241EA1261100202460B4612EB04086D
:103EE80043EB0509C7E92689BB6F0022BB64FA6466
:103EF800D7E91223D7E92601FCF782FD02460B46D3
:103F0800C7E926230123FB6733E06FA3D3E9002326
:103F1800C7E92023BB6F00223B647A64D7E91023EA
:103F2800D7E92001FCF76CFD02460B46C7E92023C0
:103F380065A3D3E90023C7E92623D7E926234FF051
:103F480000004FF00001190241EA12611002C7E9AE
:103F58002601BB6F0022BB63FA63D7E90E23D7E9BA
:103F68002601FCF74DFD02460B46C7E92623002330
:103F7800FB673B6E00223B637A63D7E92023D7E9CE
:103F88000C010446A2428B4109D397F85F301A46C8
:103F98000021786EFFF7EEFED7F880308EE0002320
:103FA800C7F894306FE0D7F88C30002B70D046A358
:103FB800D3E90023C7E91C23D7F894300022BB6259
:103FC800FA62FB6F00223B627A62D7E90A45234610
:103FD800D7E9080102469B18BB612B460A465341A4
:103FE800FB61D7E906120B4601333B61134643F1E7
:103FF80000037B617B6FD7E90445224602FB03F28D
:104008003B6F294601FB03F31A443B6F2146A3FB90
:1040180001AB02EB0B039B46C7E91CABC7E91CAB22
:10402800BB6F0022BB60FA60D7E90223D7E91C0105
:10403800FCF7E6FC02460B46C7E91C233B6E002250
:104048003B607A60D7E91C23D7E900010446A24205
:104058008B4113D33A6F3B6ED31AFB66D7F88C208B
:10406800FB6E9A420AD9FB6EC7F88C30D7F89430A9
:10407800C7F89030D7E91C23C7E92623D7F894302E
:104088000133C7F89430D7F89430FF2B8BD900E070
:1040980000BF97F85F301A46D7F89010786EFFF790
:1040A80069FED7E92623012B06D30A4B0A4A4FF4A7
:1040B80053710A48FCF73EFED7F898301846A037E7
:1040C800BD46BDE8B08F00BF00CA9A3B00000000A3
:1040D800DC5BFF0F9057FF0FA45CFF0FFC56FF0F30
:1040E80080B588B000AFF860B9601346FB71BB6853
:1040F800002B06D1384B394A40F27B313848FCF75F
:1041080019FEF868FFF79FFB0346C3F30B0301335F
:10411800FB61FB690733DB08BB61FB685B6A03F083
:1041280040737B61BB689B68002B01D100234FE083
:10413800BB681B68002B05D1BB685B68002B01D1ED
:10414800002345E0BB69042B0CD8BB689B68BA699F
:10415800B3FBF2F2B96901FB02F29B1A002B1AD0E9
:10416800002335E0BB6903F00303002B06D0BB68CE
:104178009B68BA699A420ED0002329E0BB689B6805
:10418800BA69B3FBF2F2B96901FB02F29B1A002B80
:1041980001D000231CE07B69B3F1807F03D07B69E9
:1041A800B3F1007F09D1BB681B68002B05D0BB6841
:1041B8005B68002B01D000230AE0FB79002B06D0B6
:1041C800BB6903F00303032B01D1002300E00123A3
:1041D80018462037BD4680BDB857FF0FC05CFF0F9B
:1041E800FC56FF0F90B58DB000AFF860B9607A60EB
:1041F800F868FFF7BFFB03467B4AD35C87F8273094
:10420800F868FFF720FB0346C3F30B03DB08013311
:104218003B62BB689B68FB62BB68DB6803F4800396
:10422800002B14BF01230023FB7797F827201346A0
:104238001B021A4497F827301B041A4397F82730B3
:104248001B061343BB623B6A042B28BF04231C468E
:10425800F868FFF7BFFA034604FB03F3BB61F8688D
:10426800FFF7B8FA0346FB75B4E07B689B781A46FB
:10427800FB6A934203D2FB6ADAB27B689A7000BF8A
:10428800F868FFF7B8FA0246FB7D9A42F8D07B68D7
:104298009B68002B06D07B68DA68FB6AD31ABA6978
:1042A8009A4258D97B681B78002B28D0F868FFF70A
:1042B800CAFA034643F48022FB681A667B685B7877
:1042C800002B0CD0FA6A3B6A9A4208D1F868FFF7CB
:1042D800BAFA034623F45012FB681A660AE0F86833
:1042E80000F01CFC034683F00103DBB2002B01D075
:1042F800002374E0FA6A3B6AD31AFB622BE07B68FE
:104308005B68002B1DD07B689B78012B10D07B68E5
:1043180058687B689B78FA7F194600F031FAB862D2
:104328007B685B687A6892781A447B685A6008E010
:104338007B685B681B78BB627B685B685A1C7B6820
:104348005A60B96AF868FFF7FDFA7B689B781A46E5
:10435800FB6A9B1AFB627B689B68002B3AD07B68E0
:10436800DB68002B36D000BF7B681B78002B2BD076
:10437800F868FFF74DFA0346002BF5D024E0F868FB
:10438800FFF7EDFA38617B68DB687A68D278934288
:1043980004D27B68DB68DAB27B68DA707B6898687D
:1043A8007B68DA78FB7F396900F0D4FA7B689B6810
:1043B8007A68D2781A447B689A607B68DB687A6886
:1043C800D2789A1A7B68DA60F868FFF721FA034610
:1043D800002BD4D1FB6A002B7FF447AF012318468A
:1043E8003437BD4690BD00BFBC34012090B583B0C2
:1043F80000AF7860396000BF7868FFF7FCF90446C1
:104408007868FFF7E7F903469C42F5D07868FFF72C
:104418001AFA034623F440127B681A6601231846E9
:104428000C37BD4690BD80B586B000AFF860B96066
:104438007A60BB68DB6803F48003002B14BF012398
:104448000023FB752AE0F868FFF789FA38617B6872
:10445800DB687A68D278934204D27B68DB68DAB288
:104468007B68DA707B6898687B68DA78FB7D3969E5
:1044780000F070FA7B689B687A68D2781A447B6887
:104488009A607B68DB687A68D2789A1A7B68DA6007
:10449800F868FFF7BDF90346002BD4D17B68DB68C9
:1044A800002BF5D1012318461837BD4680BD80B5CD
:1044B80082B000AF7860396000BF7868FFF77FF995
:1044C800034603F48063002BF7D00123184608370E
:1044D800BD4680BD80B58CB000AF786039603B6860
:1044E800002B06D1A24BA34A40F2AD41A248FCF7EB
:1044F80021FC7868FFF763F9034603F08073002B0B
:1045080002D04FF4C8732FE17868FFF758F90346D3
:1045180003F08073002B02D04FF4C87324E100210C
:104528007868FFF731F9002239687868FFF7D8FD15
:10453800034683F00103DBB2002B01D0042313E10F
:10454800012201217868FFF7C7F98C497868FFF7DD
:104558006DF93B68DB681B0903F00F03BB627B68DE
:104568005B6A03F040737B6207F10C0310220021A1
:104578001846FCF733FC3B681B683B613B685B688B
:104588007B6100233B733B689B68BB617868FFF7DE
:104598005AF90346C3F30B033B623B6AFB623B6A6F
:1045A800DB080133FB613B68DB6803F48013002BF5
:1045B80006D03B689B68FA699A4201D2012300E061
:1045C800002303F00103DBB27B737B6AB3F1807FC6
:1045D80003D07B6AB3F1007F0CD13B69002B09D172
:1045E80001233B737B7B002B04D0FB69042B01D98F
:1045F8001F23FB627B685B6A23F008027B685A62B0
:1046080001217868FFF7C0F87868FFF71CF90346BE
:1046180023F04F72BB6A1B0603F040731A437B6892
:104628001A66786800F07AFA034683F00103DBB271
:10463800002B02D04FF4CA7396E07868FFF703F9AD
:10464800034623F47F6323F00F037A7B520502F4B9
:1046580000121A437B7B1B0503F4801313437A690A
:10466800002A02D14FF4002200E000221A43FB6A1C
:10467800C3F30B031A437B681A66786800F04EFA96
:10468800034683F00103DBB2002B02D04FF4CA7358
:104698006AE0FB69042B06D8FB69DBB2BB73FB69D4
:1046A800DBB2FB7303E00423BB730423FB7307F142
:1046B8000C031A4639687868FFF794FD034683F0BF
:1046C8000103DBB2002B02D04FF4CA734CE07B7BB2
:1046D800002B14D03B7B83F00103DBB2002B0ED000
:1046E80007F10C0319467868FFF780FE034683F04C
:1046F8000103DBB2002B02D04FF4CA7334E07B69AC
:10470800002B0FD007F10C031A4639687868FFF7B9
:104718008AFE034683F00103DBB2002B11D04FF46D
:10472800CA7321E007F10C0319467868FFF7BFFE4A
:10473800034683F00103DBB2002B02D04FF4CA73A7
:1047480012E03A6AFB6A9A420DD07868FFF77BF864
:10475800034623F47F6323F00F033A6AC2F30B0284
:104768001A437B681A66002318463037BD4680BD59
:10477800B857FF0FDC5CFF0FFC56FF0F033F00012B
:1047880080B584B000AF78600B46FB701346BB70F1
:104798007B68002B06D16B4B6B4A40F62C116B489B
:1047A800FCF7C8FA0023FB60FB78013B032B00F2FF
:1047B800BD8001A252F823F0D147FF0FDF47FF0F5A
:1047C8002D48FF0F9F48FF0F7B681B78FB607B68B5
:1047D80001337B60B1E0BB7883F00103DBB2002BCF
:1047E8000FD07B681B78FB607B6801337B607B683C
:1047F8001B781B02FA681343FB607B6801337B60FC
:104808009BE07B681B781B02FB607B6801337B6045
:104818007B681B781A46FB681343FB607B6801338F
:104828007B608AE0BB7883F00103DBB2002B18D0F1
:104838007B681B78FB607B6801337B607B681B7837
:104848001B02FA681343FB607B6801337B607B685B
:104858001B781B04FA681343FB607B6801337B6099
:104868006BE07B681B781B04FB607B6801337B6013
:104878007B681B781B02FA681343FB607B68013373
:104888007B607B681B781A46FB681343FB607B6878
:1048980001337B6051E0BB7883F00103DBB2002B6E
:1048A80021D07B681B78FB607B6801337B607B6869
:1048B8001B781B02FA681343FB607B6801337B603B
:1048C8007B681B781B04FA681343FB607B68013321
:1048D8007B607B681B781B06FA681343FB607B6868
:1048E80001337B6029E07B681B781B06FB607B68D3
:1048F80001337B607B681B781B04FA681343FB60F9
:104908007B6801337B607B681B781B02FA68134362
:10491800FB607B6801337B607B681B781A46FB6809
:104928001343FB607B6801337B6006E0084B064A53
:1049380040F67D110548FCF7FDF9FB68184610376D
:10494800BD4680BDCC57FF0FFC5CFF0FFC56FF0F28
:104958008857FF0F80B584B000AFF860B960114682
:104968001A460B46FB711346BB71FB68002B06D138
:10497800664B674A40F686116648FCF7DBF9FB7917
:10498800013B032B00F2B68001A252F823F000BFCE
:10499800A949FF0FB949FF0F054AFF0F714AFF0FD9
:1049A800BB68DAB2FB681A70FB680133FB60A8E0E9
:1049B800BB7983F00103DBB2002B0FD0BB68DAB2FE
:1049C800FB681A70FB680133FB60BB681B0ADAB22C
:1049D800FB681A70FB680133FB6092E0BB681B0A36
:1049E800DAB2FB681A70FB680133FB60BB68DAB2A5
:1049F800FB681A70FB680133FB6082E0BB7983F0C7
:104A08000103DBB2002B17D0BB68DAB2FB681A705F
:104A1800FB680133FB60BB681B0ADAB2FB681A70DB
:104A2800FB680133FB60BB681B0CDAB2FB681A70C9
:104A3800FB680133FB6064E0BB681B0CDAB2FB68FF
:104A48001A70FB680133FB60BB681B0ADAB2FB68AB
:104A58001A70FB680133FB60BB68DAB2FB681A7036
:104A6800FB680133FB604CE0BB7983F00103DBB2E8
:104A7800002B1FD0BB68DAB2FB681A70FB680133E1
:104A8800FB60BB681B0ADAB2FB681A70FB6801336B
:104A9800FB60BB681B0CDAB2FB681A70FB68013359
:104AA800FB60BB681B0EDAB2FB681A70FB68013347
:104AB800FB6026E0BB681B0EDAB2FB681A70FB6865
:104AC8000133FB60BB681B0CDAB2FB681A70FB6829
:104AD8000133FB60BB681B0ADAB2FB681A70FB681B
:104AE8000133FB60BB68DAB2FB681A70FB680133FC
:104AF800FB6006E0084B064A40F6D4110548FCF76F
:104B080019F900BF1037BD4680BD00BFDC57FF0F45
:104B1800145DFF0FFC56FF0F8857FF0F80B582B05A
:104B280000AF786000BF7868FEF765FE0346DBB229
:104B3800002BF8D1012318460837BD4680BD000078
:104B480080B582B000AF786039607868FEF7B2FE51
:104B58000346002B05D0074B1B68396878689847CF
:104B680004E0054B1B6839687868984700BF083728
:104B7800BD4680BDB4340120B834012080B500AFF3
:104B8800094B5B68002B06D1084B094A40F61D21EA
:104B98000848FCF7CFF8044B5B6819460648FFF74E
:104BA800CFFF00BF80BD00BF90340120EC57FF0F3E
:104BB8002C5DFF0FFC56FF0F0000364480B500AF98
:104BC800094B9B68002B06D1084B094A40F6262161
:104BD8000848FCF7AFF8044B9B6819460648FFF7EE
:104BE800AFFF00BF80BD00BF903401200858FF0F01
:104BF800445DFF0FFC56FF0F0000374480B500AF3F
:104C0800094BDB68002B06D1084B094A40F62F21D7
:104C18000848FCF78FF8044BDB6819460648FFF78D
:104C28008FFF00BF80BD00BF903401202458FF0FC4
:104C38005C5DFF0FFC56FF0F0000554280B500AFCA
:104C4800094B1B69002B06D1084B094A40F638214D
:104C58000848FCF76FF8044B1B6919460648FFF72C
:104C68006FFF00BF80BD00BF903401204058FF0F88
:104C7800745DFF0FFC56FF0F0000564280B500AF71
:104C8800094B5B69002B06D1084B094A40F64121C4
:104C98000848FCF74FF8044B5B6919460648FFF7CC
:104CA8004FFF00BF80BD00BF903401205C58FF0F4C
:104CB8008C5DFF0FFC56FF0F00006F4280B500AF00
:104CC800094B9B69002B06D1084B094A40F64A213B
:104CD8000848FCF72FF8044B9B6919460648FFF76C
:104CE8002FFF00BF80BD00BF903401207858FF0F10
:104CF800A45DFF0FFC56FF0F0000704280B500AFA7
:104D0800094BDB69002B06D1084B094A40F65321B1
:104D18000848FCF70FF8044BDB6919460648FFF70B
:104D28000FFF00BF80BD00BF903401209458FF0FD3
:104D3800BC5DFF0FFC56FF0F0000714280B500AF4D
:104D4800094B1B6A002B06D1084B094A40F65C2127
:104D58000848FBF7EFFF044B1B6A19460648FFF7A4
:104D6800EFFE00BF80BD00BF90340120B058FF0F98
:104D7800D45DFF0FFC56FF0F0000724280B582B071
:104D880000AF03460A46FB711346BB71FB797E2BC5
:104D980006D9174B174A40F2E9411748FBF7CAFFF3
:104DA800164AFB799B01134403F5004330331A6814
:104DB8001249FB7942F004029B010B4403F50043BE
:104DC80030331A60BA790D49FB7902F007029B016A
:104DD8000B4403F500431C331A60BFF34F8F00BF29
:104DE800BFF36F8F00BF00BF0837BD4680BD00BF4F
:104DF800CC58FF0F3C5EFF0FD858FF0F000045440A
:104E080080B582B000AF0346FB71FB7904211846D8
:104E1800FFF7B4FF00BF0837BD4680BD80B483B03C
:104E280000AFEFF310833B603B687B6072B600BF56
:104E38007B6818460C37BD4680BC704780B485B087
:104E480000AF78607B68FB60FB6883F3108800BF65
:104E580000BF1437BD4680BC704780B483B000AF34
:104E680078607B689B6843F002027B689A607B6885
:104E78009B6823F002027B689A6000BF0C37BD462E
:104E880080BC704780B584B000AF78600023FB60B9
:104E980009E00E4AFB6852F823307A689A4206D035
:104EA800FB680133FB60FB68082BF2D900E000BF08
:104EB800FB68082B05D9064B064AE7210648FBF78D
:104EC80039FFFB6818461037BD4680BDEC5DFF0F03
:104ED8003459FF0F1C5EFF0F5C59FF0F80B58CB073
:104EE80000AFF860B9607A60BB68002B06D1844BCC
:104EF800844A40F279118448FBF71CFFBB681B68A1
:104F0800002B06D1814B7F4A4FF4BD717E48FBF7D9
:104F180011FFBB681B68B3F1006F06D37C4B794A5D
:104F280040F27B117848FBF705FF7B68002B06DA17
:104F3800784B744A4FF4BE717348FBF7FBFEBB68AD
:104F48001B7A0F2B06D9744B6E4A40F27F116E48BC
:104F5800FBF7F0FEBB685B7A0F2B06D96F4B694AEB
:104F68004FF4C0716848FBF7E5FE0023FB62BB689D
:104F78001B683B62002387F825300023FB84042349
:104F880087F8243042E07B685A00BB681B6897F8B2
:104F9800241001FB03F3B2FBF3F301335B08FB615D
:104FA800FB69002B02D10123FB6106E0FB69B3F525
:104FB800005F02D341F6FF73FB6197F82430FA696A
:104FC80002FB03F37A68B2FBF3F37B61BB681B68EF
:104FD8007A699A4204D9BB681B687A69D31A03E0D4
:104FE800BB681A687B69D31A3B613A693B6A9A4283
:104FF80007D83B693B6297F8243087F82530FB696E
:10500800FB8497F82430013387F8243097F824304C
:10501800202BB8D9BB681B68414AA2FB03235A0955
:1050280013465B0013443A6A9A4203D940F221536B
:10503800FB6239E1F868FFF725FFB861394ABB69B7
:1050480013441B781846FFF7DBFEF868FFF705FFE7
:10505800FB681B69BB6297F82530032B07D997F8C3
:105068002530072B03D8BB6A43F40033BB62BB6A05
:1050780023F0F853BB6297F82530013B1B0603F079
:10508800F853BA6A1343BB62BB6A23F4FF5323F095
:105098001F03BB62FB8CC3F30C02BB6A1A43FB6899
:1050A8001A61FB681B6923F00052FB681A61FB68F0
:1050B8009A691D4B1340BB62BB681B791A46BB68D3
:1050C8009B7C1B0203F4E0631A43BB685B7C9B0078
:1050D80003F004031343BA6A1343BB62BB685B79EA
:1050E800012B23D1BB681B79002B04D0BB6A23F4A6
:1050F8000063BB6222E0BB6A43F40063BB621DE04D
:10510800C459FF0F305EFF0F5C59FF0FD459FF0FD2
:10511800F059FF0F1C5AFF0F405AFF0F885AFF0F14
:105128001F85EB51105EFF0FE8F8FFEFBB681B7996
:10513800002B03D0BB6A43F01003BB62BB685B7DE6
:10514800002B03D0BB6A43F08053BB62FB68BA6A8A
:105158009A61FB681B6923F40053BB62BB68DB7967
:105168005B0303F40052BB6A1A43FB681A61BB680D
:105178005B7A1B04BA68127A1A43FB68DA62FB6826
:105188009B6A43F08802FB689A62FB689B6A43F457
:105198004042FB689A62474BBB62BB6A43F00043DC
:1051A800BB62BB6A43F44043BB62FB685A6ABB6894
:1051B8009B7B1B0103F01001BB685B7B5B0103F069
:1051C80020030B431A43FB685A62BB689B7A002B87
:1051D80013D0FB685B6A43F00802FB685A62BB683D
:1051E800DB7A83F00103DBB2002B1AD1324B334A4E
:1051F80040F246213248FBF79DFDBB68DB7A002B65
:105208000FD0FB685B6A43F00202FB685A62FB68D6
:105218005A6ABB68DB7B9B0003F004031A43FB68F4
:105228005A62BB681B7B002B05D0FB685B6A43F0A6
:105238000102FB685A62FB685B6A23F47062FB68D0
:105248005A62FB685A6ABB681B7C1B0203F47063D2
:105258001A43FB685A62BB689B79002B04D0BB6A6F
:1052680043F00053BB6203E0BB6A23F00053BB6208
:10527800FB685A69BB6A1A43FB685A61FB689B69F9
:10528800BB62BB68DB7C002B03D0BB6A43F4002302
:10529800BB62BB681B7D002B03D0BB6A43F4802331
:1052A800BB62FB68BA6A9A61FB6A18463037BD462A
:1052B80080BD00BF00001F40D05AFF0F305EFF0FB7
:1052C8005C59FF0F80B582B000AF78607B68002B17
:1052D80006D1254B254A4FF437712548FBF72AFD9F
:1052E800182200217868FBF779FD7B684FF4E132DA
:1052F8001A607B6800221A717B6800225A717B68E9
:1053080000229A717B680022DA717B6800221A7287
:105318007B6800225A727B6800229A727B6800229E
:10532800DA727B6800221A737B6800229A737B68A2
:1053380000225A737B680022DA737B6800221A7491
:105348007B6800225A747B6800229A747B6800226A
:10535800DA747B6800221A757B6800225A7500BFD0
:105368000837BD4680BD00BFC459FF0F505EFF0F10
:105378005C59FF0F80B584B000AF786039603A6837
:10538800254B13403B600023FB603B681B0203F482
:105398000043FA681343FB603B6823F080033B60DB
:1053A8003B681B0203F48043FA681343FB603B68C5
:1053B80023F040033B60FFF731FDB8607B681A6952
:1053C800FB681A437B681A61B868FFF737FDFFF777
:1053D80025FDB8607B689B6A23F440323B6803F480
:1053E80040731A437B689A62B868FFF727FD3B68E9
:1053F80023F440733B60FFF711FDB8607B689A693E
:105408003B681A437B689A61B868FFF717FD00BFCD
:105418001037BD4680BD00BFC0C3F00F80B485B053
:1054280000AF78607B685B69FB607B689B6A1B0CDC
:1054380003F0C303FA681343FB60FA68044B134094
:10544800FB60FB6818461437BD4680BC704700BF38
:10545800C3C0FFC180B586B000AFF860B9607A609C
:10546800BB68002B06D1164B164A40F299411648E4
:10547800FBF760FCBB687B617B683B6111E000BFA8
:10548800FB685B6903F40003002BF9D07B691B7888
:105498001A46FB68DA617B6901337B613B69013B32
:1054A8003B613B69002BEAD100BFFB685B6903F4F1
:1054B8008003002BF9D0002318461837BD4680BD5D
:1054C800B459FF0F685EFF0F5C59FF0F80B500AF3E
:1054D800044B5B68044A526811460448984700BF69
:1054E80080BD00BFEC340120C834012000003844DE
:1054F80080B500AF044B9B68044A92681146044883
:10550800984700BF80BD00BFEC340120C83401209B
:105518000000394480B500AF044BDB68044AD26808
:1055280011460448984700BF80BD00BFEC340120F5
:10553800C83401200000574280B500AF044B1B69F6
:10554800044A126911460448984700BF80BD00BF4D
:10555800EC340120C83401200000584280B500AF67
:10556800044B5B69044A526911460448984700BFD6
:1055780080BD00BFEC340120C8340120000059422E
:1055880080B500AF044B9B69044A926911460448F0
:10559800984700BF80BD00BFEC340120C83401200B
:1055A80000005A4280B500AF044BDB69044AD26957
:1055B80011460448984700BF80BD00BFEC34012065
:1055C800C83401200000694280B500AF044B1B6A53
:1055D800044A126A11460448984700BF80BD00BFBC
:1055E800EC340120C834012000006A4201010000A7
:1055F800696E7374616E6365203C20415252415953
:105608005F53495A4528735F726770696F426173C7
:10561800657329002F6D6E742F632F636F64696E35
:10562800672F54455354494E475F415245412F6DAA
:10563800333373646B2F6D63757873646B2F647287
:1056480069766572732F726770696F2F66736C5F06
:10565800726770696F2E63004E554C4C20213D20B7
:10566800636F6E66696700006E616D65203C20316E
:10567800323700002F6D6E742F632F636F64696E6D
:10568800672F54455354494E475F415245412F6D4A
:10569800333373646B2F6D63757873646B2F646534
:1056A80076696365732F692E4D582F692E4D5839C9
:1056B800332F4D494D58393335322F647269766529
:1056C80072732F66736C5F636C6F636B2E68000078
:1056D800696E7374616E6365203C20415252415972
:1056E8005F53495A4528735F6C70737069426173E0
:1056F800657329002F6D6E742F632F636F64696E55
:10570800672F54455354494E475F415245412F6DC9
:10571800333373646B2F6D63757873646B2F6472A6
:1057280069766572732F6C707370692F66736C5F1E
:105738006C707370692E63006D6173746572436F6A
:105748006E66696720213D204E554C4C00000000D4
:10575800736C617665436F6E66696720213D204EE4
:10576800554C4C007463725072657363616C655676
:10577800616C756520213D204E554C4C00000000A1
:1057880066616C73650000006265737444656C61E2
:1057980079203C3D2055494E5433325F4D415800E5
:1057A80068616E646C6520213D204E554C4C0000AC
:1057B8007472616E7366657220213D204E554C4CA3
:1057C8000000000074784461746120213D204E552A
:1057D8004C4C000072784461746120213D204E5584
:1057E8004C4C0000735F6C7073706948616E646C38
:1057F800655B315D20213D204E554C4C000000007A
:10580800735F6C7073706948616E646C655B325D60
:1058180020213D204E554C4C00000000735F6C70F9
:1058280073706948616E646C655B335D20213D204F
:105838004E554C4C00000000735F6C7073706948E3
:10584800616E646C655B345D20213D204E554C4C87
:1058580000000000735F6C7073706948616E646C5F
:10586800655B355D20213D204E554C4C0000000005
:10587800735F6C7073706948616E646C655B365DEC
:1058880020213D204E554C4C00000000735F6C7089
:1058980073706948616E646C655B375D20213D20DB
:1058A8004E554C4C00000000735F6C707370694873
:1058B800616E646C655B385D20213D204E554C4C13
:1058C800000000006E616D65203C20313237000019
:1058D8002F6D6E742F632F636F64696E672F544545
:1058E8005354494E475F415245412F6D33337364DA
:1058F8006B2F6D63757873646B2F64657669636568
:10590800732F692E4D582F692E4D5839332F4D4915
:105918004D58393335322F647269766572732F6644
:10592800736C5F636C6F636B2E680000696E7374D1
:10593800616E6365203C2041525241595F53495A78
:105948004528735F6C707561727442617365732961
:10595800000000002F6D6E742F632F636F64696EF3
:10596800672F54455354494E475F415245412F6D67
:10597800333373646B2F6D63757873646B2F647244
:1059880069766572732F6C70756172742F66736CAB
:105998005F6C70756172742E630000004E554C4C3C
:1059A80020213D2068616E646C6500004E554C4CAA
:1059B80020213D2064617461000000004E554C4C6C
:1059C80020213D20636F6E66696700003055203CDA
:1059D80020636F6E6669672D3E62617564526174FB
:1059E800655F427073000000636F6E6669672D3EE5
:1059F80062617564526174655F427073203C3D203A
:105A08002855494E5433325F4D4158202F203332A8
:105A180055290000737263436C6F636B5F487A208B
:105A28003C3D202855494E5433325F4D4158202F74
:105A380020325529000000002875696E74385F749B
:105A48002946534C5F464541545552455F4C505585
:105A58004152545F4649464F5F53495A456E286242
:105A680061736529203E20636F6E6669672D3E74F9
:105A7800784669666F57617465726D61726B000074
:105A88002875696E74385F742946534C5F464541E2
:105A9800545552455F4C50554152545F4649464F04
:105AA8005F53495A456E286261736529203E206319
:105AB8006F6E6669672D3E72784669666F576174C6
:105AC80065726D61726B000066616C7365203D3DA7
